{
  "contractName": "Airlines",
  "abi": [
    {
      "inputs": [],
      "stateMutability": "payable",
      "type": "constructor",
      "payable": true
    },
    {
      "inputs": [],
      "name": "NotAMember",
      "type": "error"
    },
    {
      "inputs": [
        {
          "internalType": "string",
          "name": "_msg",
          "type": "string"
        }
      ],
      "name": "Unauthorized",
      "type": "error"
    },
    {
      "anonymous": false,
      "inputs": [
        {
          "indexed": true,
          "internalType": "address",
          "name": "_airline",
          "type": "address"
        },
        {
          "indexed": false,
          "internalType": "uint256",
          "name": "_amount",
          "type": "uint256"
        }
      ],
      "name": "EscrowReplenished",
      "type": "event"
    },
    {
      "anonymous": false,
      "inputs": [
        {
          "indexed": true,
          "internalType": "uint256",
          "name": "_reqID",
          "type": "uint256"
        },
        {
          "indexed": false,
          "internalType": "uint256",
          "name": "_flightID",
          "type": "uint256"
        },
        {
          "indexed": false,
          "internalType": "uint256",
          "name": "_numOfSeats",
          "type": "uint256"
        },
        {
          "indexed": false,
          "internalType": "uint256",
          "name": "_custID",
          "type": "uint256"
        },
        {
          "indexed": true,
          "internalType": "address",
          "name": "_fromAirline",
          "type": "address"
        },
        {
          "indexed": true,
          "internalType": "address",
          "name": "_toAirline",
          "type": "address"
        }
      ],
      "name": "NewASKRequest",
      "type": "event"
    },
    {
      "anonymous": false,
      "inputs": [
        {
          "indexed": true,
          "internalType": "uint256",
          "name": "_reqID",
          "type": "uint256"
        },
        {
          "indexed": false,
          "internalType": "bool",
          "name": "_success",
          "type": "bool"
        },
        {
          "indexed": true,
          "internalType": "address",
          "name": "_fromAirline",
          "type": "address"
        }
      ],
      "name": "NewASKResponse",
      "type": "event"
    },
    {
      "anonymous": false,
      "inputs": [
        {
          "indexed": true,
          "internalType": "address",
          "name": "_fromAirline",
          "type": "address"
        },
        {
          "indexed": true,
          "internalType": "address",
          "name": "_toAirline",
          "type": "address"
        },
        {
          "indexed": true,
          "internalType": "uint256",
          "name": "_reqID",
          "type": "uint256"
        }
      ],
      "name": "PaymentSettled",
      "type": "event"
    },
    {
      "inputs": [],
      "name": "register",
      "outputs": [],
      "stateMutability": "payable",
      "type": "function",
      "payable": true
    },
    {
      "inputs": [
        {
          "internalType": "address",
          "name": "_memberAirline",
          "type": "address"
        }
      ],
      "name": "unregister",
      "outputs": [],
      "stateMutability": "nonpayable",
      "type": "function"
    },
    {
      "inputs": [
        {
          "internalType": "uint256",
          "name": "_reqID",
          "type": "uint256"
        },
        {
          "internalType": "uint256",
          "name": "_flightID",
          "type": "uint256"
        },
        {
          "internalType": "uint256",
          "name": "_numOfSeats",
          "type": "uint256"
        },
        {
          "internalType": "uint256",
          "name": "_custID",
          "type": "uint256"
        },
        {
          "internalType": "address",
          "name": "_toAirline",
          "type": "address"
        }
      ],
      "name": "ASKRequest",
      "outputs": [],
      "stateMutability": "nonpayable",
      "type": "function"
    },
    {
      "inputs": [
        {
          "internalType": "uint256",
          "name": "_reqID",
          "type": "uint256"
        },
        {
          "internalType": "bool",
          "name": "_success",
          "type": "bool"
        },
        {
          "internalType": "address",
          "name": "_fromAirline",
          "type": "address"
        }
      ],
      "name": "ASKResponse",
      "outputs": [],
      "stateMutability": "nonpayable",
      "type": "function"
    },
    {
      "inputs": [
        {
          "internalType": "uint256",
          "name": "_reqID",
          "type": "uint256"
        },
        {
          "internalType": "address payable",
          "name": "_toAirline",
          "type": "address"
        },
        {
          "internalType": "uint256",
          "name": "_numOfSeats",
          "type": "uint256"
        }
      ],
      "name": "settlePayment",
      "outputs": [],
      "stateMutability": "payable",
      "type": "function",
      "payable": true
    },
    {
      "inputs": [],
      "name": "replenishEscrow",
      "outputs": [],
      "stateMutability": "payable",
      "type": "function",
      "payable": true
    }
  ],
  "bytecode": "0x6080604052336000806101000a81548173ffffffffffffffffffffffffffffffffffffffff021916908373ffffffffffffffffffffffffffffffffffffffff1602179055506001600260003373ffffffffffffffffffffffffffffffffffffffff1673ffffffffffffffffffffffffffffffffffffffff1681526020019081526020016000208190555034600160003373ffffffffffffffffffffffffffffffffffffffff1673ffffffffffffffffffffffffffffffffffffffff168152602001908152602001600020819055506116a6806100dc6000396000f3fe6080604052600436106100555760003560e01c80631aa3a0081461005a5780632ec2c246146100645780638bed70301461008d57806392ec643214610097578063d70da96c146100c0578063da419f86146100e9575b600080fd5b610062610105565b005b34801561007057600080fd5b5061008b600480360381019061008691906111dd565b610190565b005b610095610333565b005b3480156100a357600080fd5b506100be60048036038101906100b99190611240565b61050f565b005b3480156100cc57600080fd5b506100e760048036038101906100e291906112f3565b6108e0565b005b61010360048036038101906100fe9190611384565b610c8c565b005b6001600260003373ffffffffffffffffffffffffffffffffffffffff1673ffffffffffffffffffffffffffffffffffffffff1681526020019081526020016000208190555034600160003373ffffffffffffffffffffffffffffffffffffffff1673ffffffffffffffffffffffffffffffffffffffff16815260200190815260200160002081905550565b60008054906101000a900473ffffffffffffffffffffffffffffffffffffffff1673ffffffffffffffffffffffffffffffffffffffff163373ffffffffffffffffffffffffffffffffffffffff161461021e576040517f973d02cb0000000000000000000000000000000000000000000000000000000081526004016102159061145a565b60405180910390fd5b6000600160008373ffffffffffffffffffffffffffffffffffffffff1673ffffffffffffffffffffffffffffffffffffffff168152602001908152602001600020549050600260008373ffffffffffffffffffffffffffffffffffffffff1673ffffffffffffffffffffffffffffffffffffffff16815260200190815260200160002060009055600160008373ffffffffffffffffffffffffffffffffffffffff1673ffffffffffffffffffffffffffffffffffffffff168152602001908152602001600020600090558173ffffffffffffffffffffffffffffffffffffffff166108fc829081150290604051600060405180830381858888f1935050505015801561032e573d6000803e3d6000fd5b505050565b333373ffffffffffffffffffffffffffffffffffffffff168173ffffffffffffffffffffffffffffffffffffffff16146103e5576001600260008373ffffffffffffffffffffffffffffffffffffffff1673ffffffffffffffffffffffffffffffffffffffff16815260200190815260200160002054146103e0576040517f2818e88800000000000000000000000000000000000000000000000000000000815260040160405180910390fd5b610468565b6001600260003373ffffffffffffffffffffffffffffffffffffffff1673ffffffffffffffffffffffffffffffffffffffff1681526020019081526020016000205414610467576040517f973d02cb00000000000000000000000000000000000000000000000000000000815260040161045e906114ec565b60405180910390fd5b5b34600160003373ffffffffffffffffffffffffffffffffffffffff1673ffffffffffffffffffffffffffffffffffffffff16815260200190815260200160002060008282546104b7919061153b565b925050819055503373ffffffffffffffffffffffffffffffffffffffff167ffd93e1a73d621e0aced79bf56e575289fe934aabecea7e00789dc3a9e5d41aa334604051610504919061157e565b60405180910390a250565b333373ffffffffffffffffffffffffffffffffffffffff168173ffffffffffffffffffffffffffffffffffffffff16146105c1576001600260008373ffffffffffffffffffffffffffffffffffffffff1673ffffffffffffffffffffffffffffffffffffffff16815260200190815260200160002054146105bc576040517f2818e88800000000000000000000000000000000000000000000000000000000815260040160405180910390fd5b610644565b6001600260003373ffffffffffffffffffffffffffffffffffffffff1673ffffffffffffffffffffffffffffffffffffffff1681526020019081526020016000205414610643576040517f973d02cb00000000000000000000000000000000000000000000000000000000815260040161063a906114ec565b60405180910390fd5b5b813373ffffffffffffffffffffffffffffffffffffffff168173ffffffffffffffffffffffffffffffffffffffff16146106f6576001600260008373ffffffffffffffffffffffffffffffffffffffff1673ffffffffffffffffffffffffffffffffffffffff16815260200190815260200160002054146106f1576040517f2818e88800000000000000000000000000000000000000000000000000000000815260040160405180910390fd5b610779565b6001600260003373ffffffffffffffffffffffffffffffffffffffff1673ffffffffffffffffffffffffffffffffffffffff1681526020019081526020016000205414610778576040517f973d02cb00000000000000000000000000000000000000000000000000000000815260040161076f906114ec565b60405180910390fd5b5b60006040518060a001604052808981526020018881526020018781526020018681526020018573ffffffffffffffffffffffffffffffffffffffff16815250905080600360003373ffffffffffffffffffffffffffffffffffffffff1673ffffffffffffffffffffffffffffffffffffffff1681526020019081526020016000206000820151816000015560208201518160010155604082015181600201556060820151816003015560808201518160040160006101000a81548173ffffffffffffffffffffffffffffffffffffffff021916908373ffffffffffffffffffffffffffffffffffffffff1602179055509050508373ffffffffffffffffffffffffffffffffffffffff163373ffffffffffffffffffffffffffffffffffffffff16897fda341d3e8a242c61ed35439f501625b5d6446cbd3570c26b09e8acd69fa2650d8a8a8a6040516108ce93929190611599565b60405180910390a45050505050505050565b333373ffffffffffffffffffffffffffffffffffffffff168173ffffffffffffffffffffffffffffffffffffffff1614610992576001600260008373ffffffffffffffffffffffffffffffffffffffff1673ffffffffffffffffffffffffffffffffffffffff168152602001908152602001600020541461098d576040517f2818e88800000000000000000000000000000000000000000000000000000000815260040160405180910390fd5b610a15565b6001600260003373ffffffffffffffffffffffffffffffffffffffff1673ffffffffffffffffffffffffffffffffffffffff1681526020019081526020016000205414610a14576040517f973d02cb000000000000000000000000000000000000000000000000000000008152600401610a0b906114ec565b60405180910390fd5b5b813373ffffffffffffffffffffffffffffffffffffffff168173ffffffffffffffffffffffffffffffffffffffff1614610ac7576001600260008373ffffffffffffffffffffffffffffffffffffffff1673ffffffffffffffffffffffffffffffffffffffff1681526020019081526020016000205414610ac2576040517f2818e88800000000000000000000000000000000000000000000000000000000815260040160405180910390fd5b610b4a565b6001600260003373ffffffffffffffffffffffffffffffffffffffff1673ffffffffffffffffffffffffffffffffffffffff1681526020019081526020016000205414610b49576040517f973d02cb000000000000000000000000000000000000000000000000000000008152600401610b40906114ec565b60405180910390fd5b5b6000604051806060016040528087815260200186151581526020018573ffffffffffffffffffffffffffffffffffffffff16815250905080600460003373ffffffffffffffffffffffffffffffffffffffff1673ffffffffffffffffffffffffffffffffffffffff1681526020019081526020016000206000820151816000015560208201518160010160006101000a81548160ff02191690831515021790555060408201518160010160016101000a81548173ffffffffffffffffffffffffffffffffffffffff021916908373ffffffffffffffffffffffffffffffffffffffff1602179055509050508373ffffffffffffffffffffffffffffffffffffffff16867f22492ef0e2d268e2cc4b04e69160f5d356955d50ffcfa93876db018f4650675f87604051610c7c91906115df565b60405180910390a3505050505050565b333373ffffffffffffffffffffffffffffffffffffffff168173ffffffffffffffffffffffffffffffffffffffff1614610d3e576001600260008373ffffffffffffffffffffffffffffffffffffffff1673ffffffffffffffffffffffffffffffffffffffff1681526020019081526020016000205414610d39576040517f2818e88800000000000000000000000000000000000000000000000000000000815260040160405180910390fd5b610dc1565b6001600260003373ffffffffffffffffffffffffffffffffffffffff1673ffffffffffffffffffffffffffffffffffffffff1681526020019081526020016000205414610dc0576040517f973d02cb000000000000000000000000000000000000000000000000000000008152600401610db7906114ec565b60405180910390fd5b5b823373ffffffffffffffffffffffffffffffffffffffff168173ffffffffffffffffffffffffffffffffffffffff1614610e73576001600260008373ffffffffffffffffffffffffffffffffffffffff1673ffffffffffffffffffffffffffffffffffffffff1681526020019081526020016000205414610e6e576040517f2818e88800000000000000000000000000000000000000000000000000000000815260040160405180910390fd5b610ef6565b6001600260003373ffffffffffffffffffffffffffffffffffffffff1673ffffffffffffffffffffffffffffffffffffffff1681526020019081526020016000205414610ef5576040517f973d02cb000000000000000000000000000000000000000000000000000000008152600401610eec906114ec565b60405180910390fd5b5b6000670de0b6b3a764000084610f0c91906115fa565b905080600160003373ffffffffffffffffffffffffffffffffffffffff1673ffffffffffffffffffffffffffffffffffffffff168152602001908152602001600020541015610f5a57600080fd5b600081600160003373ffffffffffffffffffffffffffffffffffffffff1673ffffffffffffffffffffffffffffffffffffffff16815260200190815260200160002054610fa7919061163c565b11801561101e57507fffffffffffffffffffffffffffffffffffffffffffffffffffffffffffffffff81600160008873ffffffffffffffffffffffffffffffffffffffff1673ffffffffffffffffffffffffffffffffffffffff1681526020019081526020016000205461101b919061153b565b11155b61102757600080fd5b80600160003373ffffffffffffffffffffffffffffffffffffffff1673ffffffffffffffffffffffffffffffffffffffff1681526020019081526020016000206000828254611076919061163c565b9250508190555080600160008773ffffffffffffffffffffffffffffffffffffffff1673ffffffffffffffffffffffffffffffffffffffff16815260200190815260200160002060008282546110cc919061153b565b9250508190555085600560003373ffffffffffffffffffffffffffffffffffffffff1673ffffffffffffffffffffffffffffffffffffffff16815260200190815260200160002081905550858573ffffffffffffffffffffffffffffffffffffffff163373ffffffffffffffffffffffffffffffffffffffff167fd90cc48135690de13240691adc7928fa3315cfc876fa3b761b18519ec64e752d60405160405180910390a4505050505050565b600080fd5b600073ffffffffffffffffffffffffffffffffffffffff82169050919050565b60006111aa8261117f565b9050919050565b6111ba8161119f565b81146111c557600080fd5b50565b6000813590506111d7816111b1565b92915050565b6000602082840312156111f3576111f261117a565b5b6000611201848285016111c8565b91505092915050565b6000819050919050565b61121d8161120a565b811461122857600080fd5b50565b60008135905061123a81611214565b92915050565b600080600080600060a0868803121561125c5761125b61117a565b5b600061126a8882890161122b565b955050602061127b8882890161122b565b945050604061128c8882890161122b565b935050606061129d8882890161122b565b92505060806112ae888289016111c8565b9150509295509295909350565b60008115159050919050565b6112d0816112bb565b81146112db57600080fd5b50565b6000813590506112ed816112c7565b92915050565b60008060006060848603121561130c5761130b61117a565b5b600061131a8682870161122b565b935050602061132b868287016112de565b925050604061133c868287016111c8565b9150509250925092565b60006113518261117f565b9050919050565b61136181611346565b811461136c57600080fd5b50565b60008135905061137e81611358565b92915050565b60008060006060848603121561139d5761139c61117a565b5b60006113ab8682870161122b565b93505060206113bc8682870161136f565b92505060406113cd8682870161122b565b9150509250925092565b600082825260208201905092915050565b7f4f6e6c79206368616972706572736f6e2063616e2063616c6c2074686973206660008201527f756e6374696f6e00000000000000000000000000000000000000000000000000602082015250565b60006114446027836113d7565b915061144f826113e8565b604082019050919050565b6000602082019050818103600083015261147381611437565b9050919050565b7f4f6e6c79206d656d626572732063616e2063616c6c20746869732066756e637460008201527f696f6e0000000000000000000000000000000000000000000000000000000000602082015250565b60006114d66023836113d7565b91506114e18261147a565b604082019050919050565b60006020820190508181036000830152611505816114c9565b9050919050565b7f4e487b7100000000000000000000000000000000000000000000000000000000600052601160045260246000fd5b60006115468261120a565b91506115518361120a565b92508282019050808211156115695761156861150c565b5b92915050565b6115788161120a565b82525050565b6000602082019050611593600083018461156f565b92915050565b60006060820190506115ae600083018661156f565b6115bb602083018561156f565b6115c8604083018461156f565b949350505050565b6115d9816112bb565b82525050565b60006020820190506115f460008301846115d0565b92915050565b60006116058261120a565b91506116108361120a565b925082820261161e8161120a565b915082820484148315176116355761163461150c565b5b5092915050565b60006116478261120a565b91506116528361120a565b925082820390508181111561166a5761166961150c565b5b9291505056fea264697066735822122090207c1c344b76eda48e63d27f76917d9baeb16fe19284b3c5b39dd5f27043d164736f6c63430008110033",
  "immutableReferences": {},
  "source": "// SPDX-License-Identifier: GPL-3.0\n\npragma solidity >= 0.7.0 < 0.9.0;\n\n/**\n* @dev Consortium system for participating airlines\n*/\ncontract Airlines {\n    address chairperson; // participant agent with highest privilege\n\n    /// @notice request data\n    struct ReqStruct {\n        uint reqID;\n        uint fID;\n        uint numSeats;\n        uint passengerID;\n        address toAirline;\n    }\n\n    /// @notice response data\n    struct RespStruct {\n        uint reqID;\n        bool status;\n        address fromAirline;\n    }\n\n    mapping(address => uint ) escrow; // deposited escrow by each member airline\n    mapping(address => uint) membership; // 1 if member else 0\n    mapping(address => ReqStruct) reqs; // logged reqs by each member airline\n    mapping(address => RespStruct) resps; // response\n    mapping(address => uint) settledReqID;\n\n    /// @dev throws when an unauthorized actor is trying to call a function\n    /// @param _msg description\n    error Unauthorized(string _msg);\n\n    /// @dev throws when provided address isn't a member airline\n    error NotAMember();\n\n    /**\n     * @dev emit when a request is sent `_fromAirline` to `_toAirline`\n     * @param _reqID the ID of the request\n     * @param _flightID flight ID\n     * @param _numOfSeats number of seats requested\n     * @param _custID ID of customer to transfer\n     * @param _fromAirline address of airline making request\n     * @param _toAirline address of airline receiving the request\n     */\n    event NewASKRequest(\n        uint indexed _reqID, uint _flightID, \n        uint _numOfSeats, uint _custID, \n        address indexed _fromAirline, address indexed _toAirline\n    );\n\n    /**\n     * @dev emit when a request is responded to\n     * @param _reqID ID of the request \n     * @param _success status of the response. `true` if the request was attended to otherwise `false` \n     * @param _fromAirline the address of the airline that initially sent the request\n     */\n    event NewASKResponse(\n        uint indexed _reqID, bool _success, address indexed _fromAirline\n    );\n\n    /**\n     * @dev emit when payment settlement occurs for customer exchange between airlines\n     * @param _fromAirline Airline making the settlement\n     * @param _toAirline airline receiving the settlement\n     * @param _reqID ID of the request whose payment is settled\n     */\n    event PaymentSettled(\n        address indexed _fromAirline, address indexed _toAirline, uint indexed _reqID\n    );\n\n    /// @dev emit when member airline replenishes escrow\n    /// @param _airline address of airline\n    /// @param _amount the amount replenished\n    event EscrowReplenished(\n        address indexed _airline,\n        uint _amount\n    );\n\n    /// @dev only chairperson can call functions guarded by this modifier\n    modifier onlyChairperson {\n        if(msg.sender != chairperson) revert Unauthorized(\"Only chairperson can call this function\");\n        _;\n    }\n\n    /// @dev only members can call functions guarded by this modifier\n    /// @param _addr address to validate membership. \n    /// Note: If `address(0)` is provided, `msg.sender` will be used instead\n    modifier onlyMember(address _addr) {\n        if(_addr != msg.sender) {\n            if(membership[_addr] != 1) revert NotAMember();\n        } else {\n            if(membership[msg.sender] != 1) revert Unauthorized(\"Only members can call this function\");\n        }\n        _;\n    }\n\n    /// @notice constructor\n    constructor() payable {\n        chairperson = msg.sender;\n        membership[msg.sender] = 1; // register msg.sender as a member\n        escrow[msg.sender] = msg.value; // save the received fund as an escrow\n    }\n\n    /// @notice member airlines can self-register using this function\n    function register() public payable {\n        membership[msg.sender] = 1;\n        escrow[msg.sender] = msg.value;\n    }\n\n\n    /// @notice remove airline from consortium\n    /// @param _memberAirline address of the airline to remove\n    function unregister(address _memberAirline) public onlyChairperson {\n        uint airlineEscrow = escrow[_memberAirline];\n        \n        delete membership[_memberAirline]; // reset membership to zero\n        delete escrow[_memberAirline]; // reset value to zero\n\n        payable(_memberAirline).transfer(airlineEscrow); // transfer airline escrow back to their address\n    }\n\n    /**\n     * @notice register a request for transfer of customer\n     * @param _reqID ID of the request\n     * @param _flightID the flight ID\n     * @param _numOfSeats number of seats needed\n     * @param _custID customer iD\n     * @param _toAirline address of airline `msg.sender` is sending request to\n     */\n    function ASKRequest(\n        uint _reqID,\n        uint _flightID,\n        uint _numOfSeats,\n        uint _custID,\n        address _toAirline\n    ) public onlyMember(msg.sender) onlyMember(_toAirline) {\n        ReqStruct memory req = ReqStruct({\n            reqID: _reqID,\n            numSeats: _numOfSeats,\n            passengerID : _custID,\n            toAirline : _toAirline,\n            fID: _flightID\n        });\n\n        reqs[msg.sender] = req;\n\n        emit NewASKRequest(\n            _reqID, _flightID, \n            _numOfSeats, _custID, \n            msg.sender, _toAirline); // emit event\n    }\n\n    /**\n     * @notice respond to a request\n     * @param _reqID the ID Of the request\n     * @param _success response status\n     * @param _fromAirline the address of the airline that initially sent the request\n     */\n    function ASKResponse(\n        uint _reqID, bool _success, address _fromAirline\n    ) public onlyMember(msg.sender) onlyMember(_fromAirline) {\n        RespStruct memory resp = RespStruct({\n            reqID : _reqID,\n            status : _success,\n            fromAirline : _fromAirline\n        });\n\n        resps[msg.sender] = resp;\n\n        emit NewASKResponse(_reqID, _success, _fromAirline); // emit event\n    }\n\n    /// @notice settle payment for a passenger exchange\n    /// @param _reqID ID of the passenger exchange request\n    /// @param _toAirline address of the airline who responded to the request and accepted passenger\n    /// @param _numOfSeats the number of seats transacted\n    function settlePayment(\n        uint _reqID, address payable _toAirline, uint _numOfSeats\n        ) public onlyMember(msg.sender) onlyMember(_toAirline) payable {\n\n            // assuming price per seat is 1 ETH in WEI\n            uint cost = _numOfSeats * 1e18;\n\n            /// ensure `msg.sender` has enough escrow\n            require(escrow[msg.sender] >= cost);\n\n            // Ensure underflow and overflow doesn't occur\n            require(escrow[msg.sender] - cost > type(uint).min && escrow[_toAirline] + cost <= type(uint).max);\n\n            escrow[msg.sender] -= cost;\n            escrow[_toAirline] += cost;\n\n            settledReqID[msg.sender] = _reqID;\n\n            emit PaymentSettled(msg.sender, _toAirline, _reqID); // emit event\n    }\n\n    /// @notice add escrow to be able to transact with other member airlines\n    function replenishEscrow() public payable onlyMember(msg.sender) {\n        escrow[msg.sender] += msg.value;\n\n        emit EscrowReplenished(msg.sender, msg.value); // emit event\n    }\n\n}",
  "sourcePath": "/Users/josh/Bytangle/Practice/Web3.0 & dApps/contracts/ask/contracts/Airlines.sol",
  "compiler": {
    "name": "solc",
    "version": "0.8.17+commit.8df45f5f.Emscripten.clang"
  },
  "schemaVersion": "3.4.10",
  "updatedAt": "2022-09-28T19:51:41.779Z",
  "networkType": "ethereum",
  "devdoc": {
    "details": "Consortium system for participating airlines",
    "errors": {
      "NotAMember()": [
        {
          "details": "throws when provided address isn't a member airline"
        }
      ],
      "Unauthorized(string)": [
        {
          "details": "throws when an unauthorized actor is trying to call a function",
          "params": {
            "_msg": "description"
          }
        }
      ]
    },
    "events": {
      "EscrowReplenished(address,uint256)": {
        "details": "emit when member airline replenishes escrow",
        "params": {
          "_airline": "address of airline",
          "_amount": "the amount replenished"
        }
      },
      "NewASKRequest(uint256,uint256,uint256,uint256,address,address)": {
        "details": "emit when a request is sent `_fromAirline` to `_toAirline`",
        "params": {
          "_custID": "ID of customer to transfer",
          "_flightID": "flight ID",
          "_fromAirline": "address of airline making request",
          "_numOfSeats": "number of seats requested",
          "_reqID": "the ID of the request",
          "_toAirline": "address of airline receiving the request"
        }
      },
      "NewASKResponse(uint256,bool,address)": {
        "details": "emit when a request is responded to",
        "params": {
          "_fromAirline": "the address of the airline that initially sent the request",
          "_reqID": "ID of the request ",
          "_success": "status of the response. `true` if the request was attended to otherwise `false` "
        }
      },
      "PaymentSettled(address,address,uint256)": {
        "details": "emit when payment settlement occurs for customer exchange between airlines",
        "params": {
          "_fromAirline": "Airline making the settlement",
          "_reqID": "ID of the request whose payment is settled",
          "_toAirline": "airline receiving the settlement"
        }
      }
    },
    "kind": "dev",
    "methods": {
      "ASKRequest(uint256,uint256,uint256,uint256,address)": {
        "params": {
          "_custID": "customer iD",
          "_flightID": "the flight ID",
          "_numOfSeats": "number of seats needed",
          "_reqID": "ID of the request",
          "_toAirline": "address of airline `msg.sender` is sending request to"
        }
      },
      "ASKResponse(uint256,bool,address)": {
        "params": {
          "_fromAirline": "the address of the airline that initially sent the request",
          "_reqID": "the ID Of the request",
          "_success": "response status"
        }
      },
      "settlePayment(uint256,address,uint256)": {
        "params": {
          "_numOfSeats": "the number of seats transacted",
          "_reqID": "ID of the passenger exchange request",
          "_toAirline": "address of the airline who responded to the request and accepted passenger"
        }
      },
      "unregister(address)": {
        "params": {
          "_memberAirline": "address of the airline to remove"
        }
      }
    },
    "version": 1
  },
  "userdoc": {
    "kind": "user",
    "methods": {
      "ASKRequest(uint256,uint256,uint256,uint256,address)": {
        "notice": "register a request for transfer of customer"
      },
      "ASKResponse(uint256,bool,address)": {
        "notice": "respond to a request"
      },
      "constructor": {
        "notice": "constructor"
      },
      "register()": {
        "notice": "member airlines can self-register using this function"
      },
      "replenishEscrow()": {
        "notice": "add escrow to be able to transact with other member airlines"
      },
      "settlePayment(uint256,address,uint256)": {
        "notice": "settle payment for a passenger exchange"
      },
      "unregister(address)": {
        "notice": "remove airline from consortium"
      }
    },
    "version": 1
  }
}